
Vref_EEP71.elf:     file format elf32-avr

Sections:
Idx Name          Size      VMA       LMA       File off  Algn
  0 .data         00000000  00800100  00800100  00000224  2**0
                  CONTENTS, ALLOC, LOAD, DATA
  1 .text         000001b0  00000000  00000000  00000074  2**1
                  CONTENTS, ALLOC, LOAD, READONLY, CODE
  2 .bss          00000105  00800100  00800100  00000224  2**0
                  ALLOC
  3 .comment      00000030  00000000  00000000  00000224  2**0
                  CONTENTS, READONLY
  4 .note.gnu.avr.deviceinfo 00000040  00000000  00000000  00000254  2**2
                  CONTENTS, READONLY
  5 .debug_aranges 000000c0  00000000  00000000  00000294  2**0
                  CONTENTS, READONLY, DEBUGGING
  6 .debug_info   00000e9f  00000000  00000000  00000354  2**0
                  CONTENTS, READONLY, DEBUGGING
  7 .debug_abbrev 000008a1  00000000  00000000  000011f3  2**0
                  CONTENTS, READONLY, DEBUGGING
  8 .debug_line   00000722  00000000  00000000  00001a94  2**0
                  CONTENTS, READONLY, DEBUGGING
  9 .debug_frame  00000258  00000000  00000000  000021b8  2**2
                  CONTENTS, READONLY, DEBUGGING
 10 .debug_str    00000575  00000000  00000000  00002410  2**0
                  CONTENTS, READONLY, DEBUGGING
 11 .debug_loc    000009af  00000000  00000000  00002985  2**0
                  CONTENTS, READONLY, DEBUGGING
 12 .debug_ranges 000000b8  00000000  00000000  00003334  2**0
                  CONTENTS, READONLY, DEBUGGING

Disassembly of section .text:

00000000 <__vectors>:
   0:	0c 94 34 00 	jmp	0x68	; 0x68 <__ctors_end>
   4:	0c 94 51 00 	jmp	0xa2	; 0xa2 <__bad_interrupt>
   8:	0c 94 51 00 	jmp	0xa2	; 0xa2 <__bad_interrupt>
   c:	0c 94 51 00 	jmp	0xa2	; 0xa2 <__bad_interrupt>
  10:	0c 94 51 00 	jmp	0xa2	; 0xa2 <__bad_interrupt>
  14:	0c 94 51 00 	jmp	0xa2	; 0xa2 <__bad_interrupt>
  18:	0c 94 51 00 	jmp	0xa2	; 0xa2 <__bad_interrupt>
  1c:	0c 94 51 00 	jmp	0xa2	; 0xa2 <__bad_interrupt>
  20:	0c 94 51 00 	jmp	0xa2	; 0xa2 <__bad_interrupt>
  24:	0c 94 51 00 	jmp	0xa2	; 0xa2 <__bad_interrupt>
  28:	0c 94 51 00 	jmp	0xa2	; 0xa2 <__bad_interrupt>
  2c:	0c 94 51 00 	jmp	0xa2	; 0xa2 <__bad_interrupt>
  30:	0c 94 51 00 	jmp	0xa2	; 0xa2 <__bad_interrupt>
  34:	0c 94 51 00 	jmp	0xa2	; 0xa2 <__bad_interrupt>
  38:	0c 94 51 00 	jmp	0xa2	; 0xa2 <__bad_interrupt>
  3c:	0c 94 51 00 	jmp	0xa2	; 0xa2 <__bad_interrupt>
  40:	0c 94 51 00 	jmp	0xa2	; 0xa2 <__bad_interrupt>
  44:	0c 94 51 00 	jmp	0xa2	; 0xa2 <__bad_interrupt>
  48:	0c 94 53 00 	jmp	0xa6	; 0xa6 <__vector_18>
  4c:	0c 94 88 00 	jmp	0x110	; 0x110 <__vector_19>
  50:	0c 94 51 00 	jmp	0xa2	; 0xa2 <__bad_interrupt>
  54:	0c 94 51 00 	jmp	0xa2	; 0xa2 <__bad_interrupt>
  58:	0c 94 51 00 	jmp	0xa2	; 0xa2 <__bad_interrupt>
  5c:	0c 94 51 00 	jmp	0xa2	; 0xa2 <__bad_interrupt>
  60:	0c 94 51 00 	jmp	0xa2	; 0xa2 <__bad_interrupt>
  64:	0c 94 51 00 	jmp	0xa2	; 0xa2 <__bad_interrupt>

00000068 <__ctors_end>:
  68:	11 24       	eor	r1, r1
  6a:	1f be       	out	0x3f, r1	; 63
  6c:	cf ef       	ldi	r28, 0xFF	; 255
  6e:	d8 e0       	ldi	r29, 0x08	; 8
  70:	de bf       	out	0x3e, r29	; 62
  72:	cd bf       	out	0x3d, r28	; 61

00000074 <__do_copy_data>:
  74:	11 e0       	ldi	r17, 0x01	; 1
  76:	a0 e0       	ldi	r26, 0x00	; 0
  78:	b1 e0       	ldi	r27, 0x01	; 1
  7a:	e0 eb       	ldi	r30, 0xB0	; 176
  7c:	f1 e0       	ldi	r31, 0x01	; 1
  7e:	02 c0       	rjmp	.+4      	; 0x84 <__do_copy_data+0x10>
  80:	05 90       	lpm	r0, Z+
  82:	0d 92       	st	X+, r0
  84:	a0 30       	cpi	r26, 0x00	; 0
  86:	b1 07       	cpc	r27, r17
  88:	d9 f7       	brne	.-10     	; 0x80 <__do_copy_data+0xc>

0000008a <__do_clear_bss>:
  8a:	22 e0       	ldi	r18, 0x02	; 2
  8c:	a0 e0       	ldi	r26, 0x00	; 0
  8e:	b1 e0       	ldi	r27, 0x01	; 1
  90:	01 c0       	rjmp	.+2      	; 0x94 <.do_clear_bss_start>

00000092 <.do_clear_bss_loop>:
  92:	1d 92       	st	X+, r1

00000094 <.do_clear_bss_start>:
  94:	a5 30       	cpi	r26, 0x05	; 5
  96:	b2 07       	cpc	r27, r18
  98:	e1 f7       	brne	.-8      	; 0x92 <.do_clear_bss_loop>
  9a:	0e 94 d1 00 	call	0x1a2	; 0x1a2 <main>
  9e:	0c 94 d6 00 	jmp	0x1ac	; 0x1ac <_exit>

000000a2 <__bad_interrupt>:
  a2:	0c 94 00 00 	jmp	0	; 0x0 <__vectors>

000000a6 <__vector_18>:
  a6:	1f 92       	push	r1
  a8:	0f 92       	push	r0
  aa:	0f b6       	in	r0, 0x3f	; 63
  ac:	0f 92       	push	r0
  ae:	11 24       	eor	r1, r1
  b0:	2f 93       	push	r18
  b2:	3f 93       	push	r19
  b4:	4f 93       	push	r20
  b6:	5f 93       	push	r21
  b8:	8f 93       	push	r24
  ba:	9f 93       	push	r25
  bc:	ef 93       	push	r30
  be:	ff 93       	push	r31
  c0:	20 91 c0 00 	lds	r18, 0x00C0	; 0x8000c0 <__TEXT_REGION_LENGTH__+0x7e00c0>
  c4:	30 91 c6 00 	lds	r19, 0x00C6	; 0x8000c6 <__TEXT_REGION_LENGTH__+0x7e00c6>
  c8:	28 71       	andi	r18, 0x18	; 24
  ca:	80 91 02 01 	lds	r24, 0x0102	; 0x800102 <UART_RxHead>
  ce:	90 e0       	ldi	r25, 0x00	; 0
  d0:	01 96       	adiw	r24, 0x01	; 1
  d2:	8f 77       	andi	r24, 0x7F	; 127
  d4:	99 27       	eor	r25, r25
  d6:	40 91 01 01 	lds	r20, 0x0101	; 0x800101 <UART_RxTail>
  da:	50 e0       	ldi	r21, 0x00	; 0
  dc:	84 17       	cp	r24, r20
  de:	95 07       	cpc	r25, r21
  e0:	39 f0       	breq	.+14     	; 0xf0 <__vector_18+0x4a>
  e2:	80 93 02 01 	sts	0x0102, r24	; 0x800102 <UART_RxHead>
  e6:	fc 01       	movw	r30, r24
  e8:	eb 5f       	subi	r30, 0xFB	; 251
  ea:	fe 4f       	sbci	r31, 0xFE	; 254
  ec:	30 83       	st	Z, r19
  ee:	01 c0       	rjmp	.+2      	; 0xf2 <__vector_18+0x4c>
  f0:	22 e0       	ldi	r18, 0x02	; 2
  f2:	20 93 00 01 	sts	0x0100, r18	; 0x800100 <__data_end>
  f6:	ff 91       	pop	r31
  f8:	ef 91       	pop	r30
  fa:	9f 91       	pop	r25
  fc:	8f 91       	pop	r24
  fe:	5f 91       	pop	r21
 100:	4f 91       	pop	r20
 102:	3f 91       	pop	r19
 104:	2f 91       	pop	r18
 106:	0f 90       	pop	r0
 108:	0f be       	out	0x3f, r0	; 63
 10a:	0f 90       	pop	r0
 10c:	1f 90       	pop	r1
 10e:	18 95       	reti

00000110 <__vector_19>:
 110:	1f 92       	push	r1
 112:	0f 92       	push	r0
 114:	0f b6       	in	r0, 0x3f	; 63
 116:	0f 92       	push	r0
 118:	11 24       	eor	r1, r1
 11a:	8f 93       	push	r24
 11c:	9f 93       	push	r25
 11e:	ef 93       	push	r30
 120:	ff 93       	push	r31
 122:	90 91 04 01 	lds	r25, 0x0104	; 0x800104 <UART_TxHead>
 126:	80 91 03 01 	lds	r24, 0x0103	; 0x800103 <UART_TxTail>
 12a:	98 17       	cp	r25, r24
 12c:	79 f0       	breq	.+30     	; 0x14c <__vector_19+0x3c>
 12e:	80 91 03 01 	lds	r24, 0x0103	; 0x800103 <UART_TxTail>
 132:	90 e0       	ldi	r25, 0x00	; 0
 134:	01 96       	adiw	r24, 0x01	; 1
 136:	8f 77       	andi	r24, 0x7F	; 127
 138:	99 27       	eor	r25, r25
 13a:	80 93 03 01 	sts	0x0103, r24	; 0x800103 <UART_TxTail>
 13e:	fc 01       	movw	r30, r24
 140:	eb 57       	subi	r30, 0x7B	; 123
 142:	fe 4f       	sbci	r31, 0xFE	; 254
 144:	80 81       	ld	r24, Z
 146:	80 93 c6 00 	sts	0x00C6, r24	; 0x8000c6 <__TEXT_REGION_LENGTH__+0x7e00c6>
 14a:	05 c0       	rjmp	.+10     	; 0x156 <__vector_19+0x46>
 14c:	e1 ec       	ldi	r30, 0xC1	; 193
 14e:	f0 e0       	ldi	r31, 0x00	; 0
 150:	80 81       	ld	r24, Z
 152:	8f 7d       	andi	r24, 0xDF	; 223
 154:	80 83       	st	Z, r24
 156:	ff 91       	pop	r31
 158:	ef 91       	pop	r30
 15a:	9f 91       	pop	r25
 15c:	8f 91       	pop	r24
 15e:	0f 90       	pop	r0
 160:	0f be       	out	0x3f, r0	; 63
 162:	0f 90       	pop	r0
 164:	1f 90       	pop	r1
 166:	18 95       	reti

00000168 <usart_init>:
	while(*StringPtr != 0x00)
	{
		usart_send(*StringPtr); // send char 
		StringPtr++; // increment om de vlgende char te lezen
	}
}
 168:	10 92 c5 00 	sts	0x00C5, r1	; 0x8000c5 <__TEXT_REGION_LENGTH__+0x7e00c5>
 16c:	87 e6       	ldi	r24, 0x67	; 103
 16e:	80 93 c4 00 	sts	0x00C4, r24	; 0x8000c4 <__TEXT_REGION_LENGTH__+0x7e00c4>
 172:	88 e0       	ldi	r24, 0x08	; 8
 174:	80 93 c1 00 	sts	0x00C1, r24	; 0x8000c1 <__TEXT_REGION_LENGTH__+0x7e00c1>
 178:	86 e0       	ldi	r24, 0x06	; 6
 17a:	80 93 c2 00 	sts	0x00C2, r24	; 0x8000c2 <__TEXT_REGION_LENGTH__+0x7e00c2>
 17e:	08 95       	ret

00000180 <ADC_init>:
void ADC_init(void){
	
	ADCSRA |= ((1<<ADPS2)|(1<<ADPS1)|(1<<ADPS0));    //16Mhz/128 = 125Khz clockspeed
 180:	ea e7       	ldi	r30, 0x7A	; 122
 182:	f0 e0       	ldi	r31, 0x00	; 0
 184:	80 81       	ld	r24, Z
 186:	87 60       	ori	r24, 0x07	; 7
 188:	80 83       	st	Z, r24
	ADMUX |= (1<<REFS0);                //Voltage ref (5v)
 18a:	ac e7       	ldi	r26, 0x7C	; 124
 18c:	b0 e0       	ldi	r27, 0x00	; 0
 18e:	8c 91       	ld	r24, X
 190:	80 64       	ori	r24, 0x40	; 64
 192:	8c 93       	st	X, r24
	ADCSRA |= (1<<ADEN);                //Turn on ADC
 194:	80 81       	ld	r24, Z
 196:	80 68       	ori	r24, 0x80	; 128
 198:	80 83       	st	Z, r24
	ADCSRA |= (1<<ADSC);                //Eerste Conversie test
 19a:	80 81       	ld	r24, Z
 19c:	80 64       	ori	r24, 0x40	; 64
 19e:	80 83       	st	Z, r24
 1a0:	08 95       	ret

000001a2 <main>:
uint16_t sensitivity = 100;
uint16_t offsetvolt = 2500;

int main(void)
{	
	ADC_init();  //setup
 1a2:	0e 94 c0 00 	call	0x180	; 0x180 <ADC_init>
	usart_init();
 1a6:	0e 94 b4 00 	call	0x168	; 0x168 <usart_init>
 1aa:	ff cf       	rjmp	.-2      	; 0x1aa <main+0x8>

000001ac <_exit>:
 1ac:	f8 94       	cli

000001ae <__stop_program>:
 1ae:	ff cf       	rjmp	.-2      	; 0x1ae <__stop_program>
