S0120000567265665F45455037312E73726563DE
S11300000C9434000C9451000C9451000C94510045
S11300100C9451000C9451000C9451000C94510018
S11300200C9451000C9451000C9451000C94510008
S11300300C9451000C9451000C9451000C945100F8
S11300400C9451000C9451000C9453000C948800AF
S11300500C9451000C9451000C9451000C945100D8
S11300600C9451000C94510011241FBECFEFD8E022
S1130070DEBFCDBF11E0A0E0B1E0E0EBF1E002C0F3
S113008005900D92A030B107D9F722E0A0E0B1E0CD
S113009001C01D92A530B207E1F70E94D1000C9473
S11300A0D6000C9400001F920F920FB60F921124E9
S11300B02F933F934F935F938F939F93EF93FF936C
S11300C02091C0003091C60028718091020190E017
S11300D001968F7799274091010150E08417950785
S11300E039F080930201FC01EB5FFE4F308301C0C5
S11300F022E020930001FF91EF919F918F915F91F6
S11301004F913F912F910F900FBE0F901F90189514
S11301101F920F920FB60F9211248F939F93EF9318
S1130120FF939091040180910301981779F08091D5
S1130130030190E001968F77992780930301FC01D6
S1130140EB57FE4F80818093C60005C0E1ECF0E0E0
S113015080818F7D8083FF91EF919F918F910F908C
S11301600FBE0F901F9018951092C50087E68093DC
S1130170C40088E08093C10086E08093C2000895A3
S1130180EAE7F0E0808187608083ACE7B0E08C919F
S113019080648C9380818068808380818064808384
S11301A008950E94C0000E94B400FFCFF894FFCFCE
S9030000FC
